{
  "contractName": "OmegaIdo",
  "abi": [
    {
      "inputs": [
        {
          "internalType": "contract Omega",
          "name": "_omegaAddress",
          "type": "address"
        },
        {
          "internalType": "contract Ox",
          "name": "_oxAddress",
          "type": "address"
        },
        {
          "internalType": "uint256",
          "name": "_pricePerOmega",
          "type": "uint256"
        }
      ],
      "stateMutability": "nonpayable",
      "type": "constructor"
    },
    {
      "inputs": [],
      "name": "omegaAddress",
      "outputs": [
        {
          "internalType": "contract Omega",
          "name": "",
          "type": "address"
        }
      ],
      "stateMutability": "view",
      "type": "function",
      "constant": true
    },
    {
      "inputs": [],
      "name": "oxAddress",
      "outputs": [
        {
          "internalType": "contract Ox",
          "name": "",
          "type": "address"
        }
      ],
      "stateMutability": "view",
      "type": "function",
      "constant": true
    },
    {
      "inputs": [],
      "name": "pricePerOmegaPercent",
      "outputs": [
        {
          "internalType": "uint256",
          "name": "",
          "type": "uint256"
        }
      ],
      "stateMutability": "view",
      "type": "function",
      "constant": true
    },
    {
      "inputs": [
        {
          "internalType": "address",
          "name": "_buyer",
          "type": "address"
        },
        {
          "internalType": "uint256",
          "name": "_omegaAmount",
          "type": "uint256"
        }
      ],
      "name": "sellOmegaToken",
      "outputs": [],
      "stateMutability": "nonpayable",
      "type": "function"
    },
    {
      "inputs": [
        {
          "internalType": "uint256",
          "name": "_price",
          "type": "uint256"
        }
      ],
      "name": "updatePrice",
      "outputs": [],
      "stateMutability": "nonpayable",
      "type": "function"
    },
    {
      "inputs": [
        {
          "internalType": "address",
          "name": "_to",
          "type": "address"
        },
        {
          "internalType": "uint256",
          "name": "_omegaAmount",
          "type": "uint256"
        }
      ],
      "name": "withdrawOmegaFromIdo",
      "outputs": [],
      "stateMutability": "nonpayable",
      "type": "function"
    },
    {
      "inputs": [
        {
          "internalType": "address",
          "name": "_to",
          "type": "address"
        },
        {
          "internalType": "uint256",
          "name": "_oxAmount",
          "type": "uint256"
        }
      ],
      "name": "withdrawOxFromIdo",
      "outputs": [],
      "stateMutability": "nonpayable",
      "type": "function"
    }
  ],
  "bytecode": "0x60806040523480156200001157600080fd5b5060405162000ecf38038062000ecf833981810160405281019062000037919062000207565b33600260006101000a81548173ffffffffffffffffffffffffffffffffffffffff021916908373ffffffffffffffffffffffffffffffffffffffff160217905550826000806101000a81548173ffffffffffffffffffffffffffffffffffffffff021916908373ffffffffffffffffffffffffffffffffffffffff16021790555081600160006101000a81548173ffffffffffffffffffffffffffffffffffffffff021916908373ffffffffffffffffffffffffffffffffffffffff1602179055508060038190555050505062000263565b600080fd5b600073ffffffffffffffffffffffffffffffffffffffff82169050919050565b60006200013b826200010e565b9050919050565b60006200014f826200012e565b9050919050565b620001618162000142565b81146200016d57600080fd5b50565b600081519050620001818162000156565b92915050565b600062000194826200012e565b9050919050565b620001a68162000187565b8114620001b257600080fd5b50565b600081519050620001c6816200019b565b92915050565b6000819050919050565b620001e181620001cc565b8114620001ed57600080fd5b50565b6000815190506200020181620001d6565b92915050565b60008060006060848603121562000223576200022262000109565b5b6000620002338682870162000170565b93505060206200024686828701620001b5565b92505060406200025986828701620001f0565b9150509250925092565b610c5c80620002736000396000f3fe608060405234801561001057600080fd5b506004361061007d5760003560e01c8063835e3c721161005b578063835e3c72146100dc5780638d6cc56d146100f8578063c492ed6914610114578063e0f57c9e146101305761007d565b80632c387275146100825780633ebb00b8146100a05780637a4d1ca3146100be575b600080fd5b61008a61014c565b604051610097919061073b565b60405180910390f35b6100a8610172565b6040516100b59190610777565b60405180910390f35b6100c6610196565b6040516100d391906107ab565b60405180910390f35b6100f660048036038101906100f19190610835565b61019c565b005b610112600480360381019061010d9190610875565b6103ba565b005b61012e60048036038101906101299190610835565b610454565b005b61014a60048036038101906101459190610835565b610589565b005b600160009054906101000a900473ffffffffffffffffffffffffffffffffffffffff1681565b60008054906101000a900473ffffffffffffffffffffffffffffffffffffffff1681565b60035481565b8173ffffffffffffffffffffffffffffffffffffffff163373ffffffffffffffffffffffffffffffffffffffff161461020a576040517f08c379a000000000000000000000000000000000000000000000000000000000815260040161020190610925565b60405180910390fd5b670de0b6b3a7640000811015610255576040517f08c379a000000000000000000000000000000000000000000000000000000000815260040161024c906109b7565b60405180910390fd5b60006064600354836102679190610a06565b6102719190610a8f565b9050600160009054906101000a900473ffffffffffffffffffffffffffffffffffffffff1673ffffffffffffffffffffffffffffffffffffffff166323b872dd8430846040518463ffffffff1660e01b81526004016102d293929190610acf565b6020604051808303816000875af11580156102f1573d6000803e3d6000fd5b505050506040513d601f19601f820116820180604052508101906103159190610b3e565b5060008054906101000a900473ffffffffffffffffffffffffffffffffffffffff1673ffffffffffffffffffffffffffffffffffffffff1663a9059cbb84846040518363ffffffff1660e01b8152600401610371929190610b6b565b6020604051808303816000875af1158015610390573d6000803e3d6000fd5b505050506040513d601f19601f820116820180604052508101906103b49190610b3e565b50505050565b600260009054906101000a900473ffffffffffffffffffffffffffffffffffffffff1673ffffffffffffffffffffffffffffffffffffffff163373ffffffffffffffffffffffffffffffffffffffff161461044a576040517f08c379a000000000000000000000000000000000000000000000000000000000815260040161044190610c06565b60405180910390fd5b8060038190555050565b600260009054906101000a900473ffffffffffffffffffffffffffffffffffffffff1673ffffffffffffffffffffffffffffffffffffffff163373ffffffffffffffffffffffffffffffffffffffff16146104e4576040517f08c379a00000000000000000000000000000000000000000000000000000000081526004016104db90610c06565b60405180910390fd5b600160009054906101000a900473ffffffffffffffffffffffffffffffffffffffff1673ffffffffffffffffffffffffffffffffffffffff1663a9059cbb83836040518363ffffffff1660e01b8152600401610541929190610b6b565b6020604051808303816000875af1158015610560573d6000803e3d6000fd5b505050506040513d601f19601f820116820180604052508101906105849190610b3e565b505050565b600260009054906101000a900473ffffffffffffffffffffffffffffffffffffffff1673ffffffffffffffffffffffffffffffffffffffff163373ffffffffffffffffffffffffffffffffffffffff1614610619576040517f08c379a000000000000000000000000000000000000000000000000000000000815260040161061090610c06565b60405180910390fd5b60008054906101000a900473ffffffffffffffffffffffffffffffffffffffff1673ffffffffffffffffffffffffffffffffffffffff1663a9059cbb83836040518363ffffffff1660e01b8152600401610674929190610b6b565b6020604051808303816000875af1158015610693573d6000803e3d6000fd5b505050506040513d601f19601f820116820180604052508101906106b79190610b3e565b505050565b600073ffffffffffffffffffffffffffffffffffffffff82169050919050565b6000819050919050565b60006107016106fc6106f7846106bc565b6106dc565b6106bc565b9050919050565b6000610713826106e6565b9050919050565b600061072582610708565b9050919050565b6107358161071a565b82525050565b6000602082019050610750600083018461072c565b92915050565b600061076182610708565b9050919050565b61077181610756565b82525050565b600060208201905061078c6000830184610768565b92915050565b6000819050919050565b6107a581610792565b82525050565b60006020820190506107c0600083018461079c565b92915050565b600080fd5b60006107d6826106bc565b9050919050565b6107e6816107cb565b81146107f157600080fd5b50565b600081359050610803816107dd565b92915050565b61081281610792565b811461081d57600080fd5b50565b60008135905061082f81610809565b92915050565b6000806040838503121561084c5761084b6107c6565b5b600061085a858286016107f4565b925050602061086b85828601610820565b9150509250929050565b60006020828403121561088b5761088a6107c6565b5b600061089984828501610820565b91505092915050565b600082825260208201905092915050565b7f596f75206d7573742062652074686520627579657220746f2072756e2074686960008201527f732e000000000000000000000000000000000000000000000000000000000000602082015250565b600061090f6022836108a2565b915061091a826108b3565b604082019050919050565b6000602082019050818103600083015261093e81610902565b9050919050565b7f596f75206d757374207075726368617365206174206c6561737420312043554260008201527f4f20746f6b656e2e000000000000000000000000000000000000000000000000602082015250565b60006109a16028836108a2565b91506109ac82610945565b604082019050919050565b600060208201905081810360008301526109d081610994565b9050919050565b7f4e487b7100000000000000000000000000000000000000000000000000000000600052601160045260246000fd5b6000610a1182610792565b9150610a1c83610792565b9250817fffffffffffffffffffffffffffffffffffffffffffffffffffffffffffffffff0483118215151615610a5557610a546109d7565b5b828202905092915050565b7f4e487b7100000000000000000000000000000000000000000000000000000000600052601260045260246000fd5b6000610a9a82610792565b9150610aa583610792565b925082610ab557610ab4610a60565b5b828204905092915050565b610ac9816107cb565b82525050565b6000606082019050610ae46000830186610ac0565b610af16020830185610ac0565b610afe604083018461079c565b949350505050565b60008115159050919050565b610b1b81610b06565b8114610b2657600080fd5b50565b600081519050610b3881610b12565b92915050565b600060208284031215610b5457610b536107c6565b5b6000610b6284828501610b29565b91505092915050565b6000604082019050610b806000830185610ac0565b610b8d602083018461079c565b9392505050565b7f596f75206d75737420626520746865206f776e657220746f2072756e2074686960008201527f732e000000000000000000000000000000000000000000000000000000000000602082015250565b6000610bf06022836108a2565b9150610bfb82610b94565b604082019050919050565b60006020820190508181036000830152610c1f81610be3565b905091905056fea264697066735822122021ef22a4164919cb5cbe63ac4425e75e9af4c06110025dd96e7f62529bd377f364736f6c634300080a0033",
  "immutableReferences": {},
  "source": "// SPDX-License-Identifier: MIT\npragma solidity >=0.4.22 <0.9.0;\n\nimport \"./Omega.sol\";\nimport \"./Ox.sol\";\n\ncontract OmegaIdo {\n  Omega public omegaAddress;\n  Ox public oxAddress;\n  address private owner;\n  uint public pricePerOmegaPercent;\n\n  constructor(Omega _omegaAddress, Ox _oxAddress, uint _pricePerOmega) {\n    owner = msg.sender;\n    omegaAddress = _omegaAddress;\n    oxAddress = _oxAddress;\n    pricePerOmegaPercent = _pricePerOmega;\n  }\n\n  function sellOmegaToken(address _buyer, uint _omegaAmount) public {\n    require(msg.sender == _buyer, 'You must be the buyer to run this.');\n    require(_omegaAmount >= 1 * 10 ** 18, 'You must purchase at least 1 OM token.');\n\n    uint oxAmount = (_omegaAmount * pricePerOmegaPercent) / 100;\n\n    oxAddress.transferFrom(_buyer, address(this), oxAmount);\n    omegaAddress.transfer(_buyer, _omegaAmount);\n  }\n\n  // TODO: Script to update price\n  function updatePrice(uint _price) public {\n    require(msg.sender == owner, 'You must be the owner to run this.');\n    pricePerOmegaPercent = _price;\n  }\n\n  // TODO: Script to withdraw OM form IDO\n  function withdrawOmegaFromIdo(address _to, uint _omegaAmount) public {\n    require(msg.sender == owner, 'You must be the owner to run this.');\n    omegaAddress.transfer(_to, _omegaAmount);\n  }\n\n  // TODO: Script to withdraw OX form IDO\n  function withdrawOxFromIdo(address _to, uint _oxAmount) public {\n    require(msg.sender == owner, 'You must be the owner to run this.');\n    oxAddress.transfer(_to, _oxAmount);\n  }\n}\n",
  "sourcePath": "/Users/bruno/dev/crypto/omega/omega-nodes/contracts/OmegaIdo.sol",
  "compiler": {
    "name": "solc",
    "version": "0.8.10+commit.fc410830.Emscripten.clang"
  },
  "schemaVersion": "3.4.3",
  "updatedAt": "2022-01-08T12:27:16.123Z",
  "networkType": "ethereum",
  "devdoc": {
    "kind": "dev",
    "methods": {},
    "version": 1
  },
  "userdoc": {
    "kind": "user",
    "methods": {},
    "version": 1
  }
}