{
  "contractName": "Omega",
  "abi": [
    {
      "inputs": [],
      "stateMutability": "nonpayable",
      "type": "constructor"
    },
    {
      "anonymous": false,
      "inputs": [
        {
          "indexed": true,
          "internalType": "address",
          "name": "owner",
          "type": "address"
        },
        {
          "indexed": true,
          "internalType": "address",
          "name": "spender",
          "type": "address"
        },
        {
          "indexed": false,
          "internalType": "uint256",
          "name": "value",
          "type": "uint256"
        }
      ],
      "name": "Approval",
      "type": "event"
    },
    {
      "anonymous": false,
      "inputs": [
        {
          "indexed": true,
          "internalType": "address",
          "name": "from",
          "type": "address"
        },
        {
          "indexed": true,
          "internalType": "address",
          "name": "to",
          "type": "address"
        },
        {
          "indexed": false,
          "internalType": "uint256",
          "name": "value",
          "type": "uint256"
        }
      ],
      "name": "Transfer",
      "type": "event"
    },
    {
      "inputs": [
        {
          "internalType": "address",
          "name": "owner",
          "type": "address"
        },
        {
          "internalType": "address",
          "name": "spender",
          "type": "address"
        }
      ],
      "name": "allowance",
      "outputs": [
        {
          "internalType": "uint256",
          "name": "",
          "type": "uint256"
        }
      ],
      "stateMutability": "view",
      "type": "function",
      "constant": true
    },
    {
      "inputs": [
        {
          "internalType": "address",
          "name": "spender",
          "type": "address"
        },
        {
          "internalType": "uint256",
          "name": "amount",
          "type": "uint256"
        }
      ],
      "name": "approve",
      "outputs": [
        {
          "internalType": "bool",
          "name": "",
          "type": "bool"
        }
      ],
      "stateMutability": "nonpayable",
      "type": "function"
    },
    {
      "inputs": [
        {
          "internalType": "address",
          "name": "account",
          "type": "address"
        }
      ],
      "name": "balanceOf",
      "outputs": [
        {
          "internalType": "uint256",
          "name": "",
          "type": "uint256"
        }
      ],
      "stateMutability": "view",
      "type": "function",
      "constant": true
    },
    {
      "inputs": [],
      "name": "decimals",
      "outputs": [
        {
          "internalType": "uint8",
          "name": "",
          "type": "uint8"
        }
      ],
      "stateMutability": "view",
      "type": "function",
      "constant": true
    },
    {
      "inputs": [
        {
          "internalType": "address",
          "name": "spender",
          "type": "address"
        },
        {
          "internalType": "uint256",
          "name": "subtractedValue",
          "type": "uint256"
        }
      ],
      "name": "decreaseAllowance",
      "outputs": [
        {
          "internalType": "bool",
          "name": "",
          "type": "bool"
        }
      ],
      "stateMutability": "nonpayable",
      "type": "function"
    },
    {
      "inputs": [
        {
          "internalType": "address",
          "name": "spender",
          "type": "address"
        },
        {
          "internalType": "uint256",
          "name": "addedValue",
          "type": "uint256"
        }
      ],
      "name": "increaseAllowance",
      "outputs": [
        {
          "internalType": "bool",
          "name": "",
          "type": "bool"
        }
      ],
      "stateMutability": "nonpayable",
      "type": "function"
    },
    {
      "inputs": [],
      "name": "name",
      "outputs": [
        {
          "internalType": "string",
          "name": "",
          "type": "string"
        }
      ],
      "stateMutability": "view",
      "type": "function",
      "constant": true
    },
    {
      "inputs": [],
      "name": "symbol",
      "outputs": [
        {
          "internalType": "string",
          "name": "",
          "type": "string"
        }
      ],
      "stateMutability": "view",
      "type": "function",
      "constant": true
    },
    {
      "inputs": [],
      "name": "totalSupply",
      "outputs": [
        {
          "internalType": "uint256",
          "name": "",
          "type": "uint256"
        }
      ],
      "stateMutability": "view",
      "type": "function",
      "constant": true
    },
    {
      "inputs": [
        {
          "internalType": "address",
          "name": "_omegaDao",
          "type": "address"
        }
      ],
      "name": "setDaoContract",
      "outputs": [],
      "stateMutability": "nonpayable",
      "type": "function"
    },
    {
      "inputs": [
        {
          "internalType": "uint256",
          "name": "_limit",
          "type": "uint256"
        }
      ],
      "name": "setTranferLimit",
      "outputs": [],
      "stateMutability": "nonpayable",
      "type": "function"
    },
    {
      "inputs": [
        {
          "internalType": "address",
          "name": "sender",
          "type": "address"
        },
        {
          "internalType": "address",
          "name": "recipient",
          "type": "address"
        },
        {
          "internalType": "uint256",
          "name": "amount",
          "type": "uint256"
        }
      ],
      "name": "transferFrom",
      "outputs": [
        {
          "internalType": "bool",
          "name": "",
          "type": "bool"
        }
      ],
      "stateMutability": "nonpayable",
      "type": "function"
    },
    {
      "inputs": [
        {
          "internalType": "address",
          "name": "recipient",
          "type": "address"
        },
        {
          "internalType": "uint256",
          "name": "amount",
          "type": "uint256"
        }
      ],
      "name": "transfer",
      "outputs": [
        {
          "internalType": "bool",
          "name": "",
          "type": "bool"
        }
      ],
      "stateMutability": "nonpayable",
      "type": "function"
    },
    {
      "inputs": [
        {
          "internalType": "uint256",
          "name": "_amount",
          "type": "uint256"
        }
      ],
      "name": "mint",
      "outputs": [],
      "stateMutability": "nonpayable",
      "type": "function"
    },
    {
      "inputs": [
        {
          "internalType": "uint256",
          "name": "_amount",
          "type": "uint256"
        }
      ],
      "name": "burn",
      "outputs": [],
      "stateMutability": "nonpayable",
      "type": "function"
    }
  ],
  "bytecode": "0x60806040526a52b7d2dcc80cd2e40000006007553480156200002057600080fd5b506040518060400160405280600a81526020017f4355424f20746f6b656e000000000000000000000000000000000000000000008152506040518060400160405280600481526020017f4355424f000000000000000000000000000000000000000000000000000000008152508160039080519060200190620000a5929190620002a8565b508060049080519060200190620000be929190620002a8565b50505033600560006101000a81548173ffffffffffffffffffffffffffffffffffffffff021916908373ffffffffffffffffffffffffffffffffffffffff1602179055506200011f336a01a784379d99db420000006200012560201b60201c565b62000504565b600073ffffffffffffffffffffffffffffffffffffffff168273ffffffffffffffffffffffffffffffffffffffff16141562000198576040517f08c379a00000000000000000000000000000000000000000000000000000000081526004016200018f90620003b9565b60405180910390fd5b620001ac600083836200029e60201b60201c565b8060026000828254620001c0919062000414565b92505081905550806000808473ffffffffffffffffffffffffffffffffffffffff1673ffffffffffffffffffffffffffffffffffffffff168152602001908152602001600020600082825462000217919062000414565b925050819055508173ffffffffffffffffffffffffffffffffffffffff16600073ffffffffffffffffffffffffffffffffffffffff167fddf252ad1be2c89b69c2b068fc378daa952ba7f163c4a11628f55a4df523b3ef836040516200027e919062000482565b60405180910390a36200029a60008383620002a360201b60201c565b5050565b505050565b505050565b828054620002b690620004ce565b90600052602060002090601f016020900481019282620002da576000855562000326565b82601f10620002f557805160ff191683800117855562000326565b8280016001018555821562000326579182015b828111156200032557825182559160200191906001019062000308565b5b50905062000335919062000339565b5090565b5b80821115620003545760008160009055506001016200033a565b5090565b600082825260208201905092915050565b7f45524332303a206d696e7420746f20746865207a65726f206164647265737300600082015250565b6000620003a1601f8362000358565b9150620003ae8262000369565b602082019050919050565b60006020820190508181036000830152620003d48162000392565b9050919050565b6000819050919050565b7f4e487b7100000000000000000000000000000000000000000000000000000000600052601160045260246000fd5b60006200042182620003db565b91506200042e83620003db565b9250827fffffffffffffffffffffffffffffffffffffffffffffffffffffffffffffffff03821115620004665762000465620003e5565b5b828201905092915050565b6200047c81620003db565b82525050565b600060208201905062000499600083018462000471565b92915050565b7f4e487b7100000000000000000000000000000000000000000000000000000000600052602260045260246000fd5b60006002820490506001821680620004e757607f821691505b60208210811415620004fe57620004fd6200049f565b5b50919050565b611f5080620005146000396000f3fe608060405234801561001057600080fd5b50600436106100f55760003560e01c8063461db27f11610097578063a0712d6811610066578063a0712d6814610286578063a457c2d7146102a2578063a9059cbb146102d2578063dd62ed3e14610302576100f5565b8063461db27f1461020057806370a082311461021c5780638fb582851461024c57806395d89b4114610268576100f5565b806323b872dd116100d357806323b872dd14610166578063313ce5671461019657806339509351146101b457806342966c68146101e4576100f5565b806306fdde03146100fa578063095ea7b31461011857806318160ddd14610148575b600080fd5b610102610332565b60405161010f919061143d565b60405180910390f35b610132600480360381019061012d91906114f8565b6103c4565b60405161013f9190611553565b60405180910390f35b6101506103e2565b60405161015d919061157d565b60405180910390f35b610180600480360381019061017b9190611598565b6103ec565b60405161018d9190611553565b60405180910390f35b61019e610447565b6040516101ab9190611607565b60405180910390f35b6101ce60048036038101906101c991906114f8565b610450565b6040516101db9190611553565b60405180910390f35b6101fe60048036038101906101f99190611622565b6104fc565b005b61021a60048036038101906102159190611622565b6105f1565b005b6102366004803603810190610231919061164f565b61068b565b604051610243919061157d565b60405180910390f35b6102666004803603810190610261919061164f565b6106d3565b005b6102706107a7565b60405161027d919061143d565b60405180910390f35b6102a0600480360381019061029b9190611622565b610839565b005b6102bc60048036038101906102b791906114f8565b61092e565b6040516102c99190611553565b60405180910390f35b6102ec60048036038101906102e791906114f8565b610a19565b6040516102f99190611553565b60405180910390f35b61031c6004803603810190610317919061167c565b610a72565b604051610329919061157d565b60405180910390f35b606060038054610341906116eb565b80601f016020809104026020016040519081016040528092919081815260200182805461036d906116eb565b80156103ba5780601f1061038f576101008083540402835291602001916103ba565b820191906000526020600020905b81548152906001019060200180831161039d57829003601f168201915b5050505050905090565b60006103d86103d1610af9565b8484610b01565b6001905092915050565b6000600254905090565b6000600754821115610433576040517f08c379a000000000000000000000000000000000000000000000000000000000815260040161042a9061178f565b60405180910390fd5b61043e848484610ccc565b90509392505050565b60006012905090565b60006104f261045d610af9565b84846001600061046b610af9565b73ffffffffffffffffffffffffffffffffffffffff1673ffffffffffffffffffffffffffffffffffffffff16815260200190815260200160002060008873ffffffffffffffffffffffffffffffffffffffff1673ffffffffffffffffffffffffffffffffffffffff168152602001908152602001600020546104ed91906117de565b610b01565b6001905092915050565b600660009054906101000a900473ffffffffffffffffffffffffffffffffffffffff1673ffffffffffffffffffffffffffffffffffffffff163373ffffffffffffffffffffffffffffffffffffffff1614806105a55750600560009054906101000a900473ffffffffffffffffffffffffffffffffffffffff1673ffffffffffffffffffffffffffffffffffffffff163373ffffffffffffffffffffffffffffffffffffffff16145b6105e4576040517f08c379a00000000000000000000000000000000000000000000000000000000081526004016105db906118a6565b60405180910390fd5b6105ee3382610dc4565b50565b600560009054906101000a900473ffffffffffffffffffffffffffffffffffffffff1673ffffffffffffffffffffffffffffffffffffffff163373ffffffffffffffffffffffffffffffffffffffff1614610681576040517f08c379a000000000000000000000000000000000000000000000000000000000815260040161067890611938565b60405180910390fd5b8060078190555050565b60008060008373ffffffffffffffffffffffffffffffffffffffff1673ffffffffffffffffffffffffffffffffffffffff168152602001908152602001600020549050919050565b600560009054906101000a900473ffffffffffffffffffffffffffffffffffffffff1673ffffffffffffffffffffffffffffffffffffffff163373ffffffffffffffffffffffffffffffffffffffff1614610763576040517f08c379a000000000000000000000000000000000000000000000000000000000815260040161075a90611938565b60405180910390fd5b80600660006101000a81548173ffffffffffffffffffffffffffffffffffffffff021916908373ffffffffffffffffffffffffffffffffffffffff16021790555050565b6060600480546107b6906116eb565b80601f01602080910402602001604051908101604052809291908181526020018280546107e2906116eb565b801561082f5780601f106108045761010080835404028352916020019161082f565b820191906000526020600020905b81548152906001019060200180831161081257829003601f168201915b5050505050905090565b600660009054906101000a900473ffffffffffffffffffffffffffffffffffffffff1673ffffffffffffffffffffffffffffffffffffffff163373ffffffffffffffffffffffffffffffffffffffff1614806108e25750600560009054906101000a900473ffffffffffffffffffffffffffffffffffffffff1673ffffffffffffffffffffffffffffffffffffffff163373ffffffffffffffffffffffffffffffffffffffff16145b610921576040517f08c379a0000000000000000000000000000000000000000000000000000000008152600401610918906118a6565b60405180910390fd5b61092b3382610f9b565b50565b6000806001600061093d610af9565b73ffffffffffffffffffffffffffffffffffffffff1673ffffffffffffffffffffffffffffffffffffffff16815260200190815260200160002060008573ffffffffffffffffffffffffffffffffffffffff1673ffffffffffffffffffffffffffffffffffffffff168152602001908152602001600020549050828110156109fa576040517f08c379a00000000000000000000000000000000000000000000000000000000081526004016109f1906119ca565b60405180910390fd5b610a0e610a05610af9565b85858403610b01565b600191505092915050565b6000600754821115610a60576040517f08c379a0000000000000000000000000000000000000000000000000000000008152600401610a579061178f565b60405180910390fd5b610a6a83836110fb565b905092915050565b6000600160008473ffffffffffffffffffffffffffffffffffffffff1673ffffffffffffffffffffffffffffffffffffffff16815260200190815260200160002060008373ffffffffffffffffffffffffffffffffffffffff1673ffffffffffffffffffffffffffffffffffffffff16815260200190815260200160002054905092915050565b600033905090565b600073ffffffffffffffffffffffffffffffffffffffff168373ffffffffffffffffffffffffffffffffffffffff161415610b71576040517f08c379a0000000000000000000000000000000000000000000000000000000008152600401610b6890611a5c565b60405180910390fd5b600073ffffffffffffffffffffffffffffffffffffffff168273ffffffffffffffffffffffffffffffffffffffff161415610be1576040517f08c379a0000000000000000000000000000000000000000000000000000000008152600401610bd890611aee565b60405180910390fd5b80600160008573ffffffffffffffffffffffffffffffffffffffff1673ffffffffffffffffffffffffffffffffffffffff16815260200190815260200160002060008473ffffffffffffffffffffffffffffffffffffffff1673ffffffffffffffffffffffffffffffffffffffff168152602001908152602001600020819055508173ffffffffffffffffffffffffffffffffffffffff168373ffffffffffffffffffffffffffffffffffffffff167f8c5be1e5ebec7d5bd14f71427d1e84f3dd0314c0f7b2291e5b200ac8c7c3b92583604051610cbf919061157d565b60405180910390a3505050565b6000610cd9848484611119565b6000600160008673ffffffffffffffffffffffffffffffffffffffff1673ffffffffffffffffffffffffffffffffffffffff1681526020019081526020016000206000610d24610af9565b73ffffffffffffffffffffffffffffffffffffffff1673ffffffffffffffffffffffffffffffffffffffff16815260200190815260200160002054905082811015610da4576040517f08c379a0000000000000000000000000000000000000000000000000000000008152600401610d9b90611b80565b60405180910390fd5b610db885610db0610af9565b858403610b01565b60019150509392505050565b600073ffffffffffffffffffffffffffffffffffffffff168273ffffffffffffffffffffffffffffffffffffffff161415610e34576040517f08c379a0000000000000000000000000000000000000000000000000000000008152600401610e2b90611c12565b60405180910390fd5b610e408260008361139a565b60008060008473ffffffffffffffffffffffffffffffffffffffff1673ffffffffffffffffffffffffffffffffffffffff16815260200190815260200160002054905081811015610ec6576040517f08c379a0000000000000000000000000000000000000000000000000000000008152600401610ebd90611ca4565b60405180910390fd5b8181036000808573ffffffffffffffffffffffffffffffffffffffff1673ffffffffffffffffffffffffffffffffffffffff168152602001908152602001600020819055508160026000828254610f1d9190611cc4565b92505081905550600073ffffffffffffffffffffffffffffffffffffffff168373ffffffffffffffffffffffffffffffffffffffff167fddf252ad1be2c89b69c2b068fc378daa952ba7f163c4a11628f55a4df523b3ef84604051610f82919061157d565b60405180910390a3610f968360008461139f565b505050565b600073ffffffffffffffffffffffffffffffffffffffff168273ffffffffffffffffffffffffffffffffffffffff16141561100b576040517f08c379a000000000000000000000000000000000000000000000000000000000815260040161100290611d44565b60405180910390fd5b6110176000838361139a565b806002600082825461102991906117de565b92505081905550806000808473ffffffffffffffffffffffffffffffffffffffff1673ffffffffffffffffffffffffffffffffffffffff168152602001908152602001600020600082825461107e91906117de565b925050819055508173ffffffffffffffffffffffffffffffffffffffff16600073ffffffffffffffffffffffffffffffffffffffff167fddf252ad1be2c89b69c2b068fc378daa952ba7f163c4a11628f55a4df523b3ef836040516110e3919061157d565b60405180910390a36110f76000838361139f565b5050565b600061110f611108610af9565b8484611119565b6001905092915050565b600073ffffffffffffffffffffffffffffffffffffffff168373ffffffffffffffffffffffffffffffffffffffff161415611189576040517f08c379a000000000000000000000000000000000000000000000000000000000815260040161118090611dd6565b60405180910390fd5b600073ffffffffffffffffffffffffffffffffffffffff168273ffffffffffffffffffffffffffffffffffffffff1614156111f9576040517f08c379a00000000000000000000000000000000000000000000000000000000081526004016111f090611e68565b60405180910390fd5b61120483838361139a565b60008060008573ffffffffffffffffffffffffffffffffffffffff1673ffffffffffffffffffffffffffffffffffffffff1681526020019081526020016000205490508181101561128a576040517f08c379a000000000000000000000000000000000000000000000000000000000815260040161128190611efa565b60405180910390fd5b8181036000808673ffffffffffffffffffffffffffffffffffffffff1673ffffffffffffffffffffffffffffffffffffffff16815260200190815260200160002081905550816000808573ffffffffffffffffffffffffffffffffffffffff1673ffffffffffffffffffffffffffffffffffffffff168152602001908152602001600020600082825461131d91906117de565b925050819055508273ffffffffffffffffffffffffffffffffffffffff168473ffffffffffffffffffffffffffffffffffffffff167fddf252ad1be2c89b69c2b068fc378daa952ba7f163c4a11628f55a4df523b3ef84604051611381919061157d565b60405180910390a361139484848461139f565b50505050565b505050565b505050565b600081519050919050565b600082825260208201905092915050565b60005b838110156113de5780820151818401526020810190506113c3565b838111156113ed576000848401525b50505050565b6000601f19601f8301169050919050565b600061140f826113a4565b61141981856113af565b93506114298185602086016113c0565b611432816113f3565b840191505092915050565b600060208201905081810360008301526114578184611404565b905092915050565b600080fd5b600073ffffffffffffffffffffffffffffffffffffffff82169050919050565b600061148f82611464565b9050919050565b61149f81611484565b81146114aa57600080fd5b50565b6000813590506114bc81611496565b92915050565b6000819050919050565b6114d5816114c2565b81146114e057600080fd5b50565b6000813590506114f2816114cc565b92915050565b6000806040838503121561150f5761150e61145f565b5b600061151d858286016114ad565b925050602061152e858286016114e3565b9150509250929050565b60008115159050919050565b61154d81611538565b82525050565b60006020820190506115686000830184611544565b92915050565b611577816114c2565b82525050565b6000602082019050611592600083018461156e565b92915050565b6000806000606084860312156115b1576115b061145f565b5b60006115bf868287016114ad565b93505060206115d0868287016114ad565b92505060406115e1868287016114e3565b9150509250925092565b600060ff82169050919050565b611601816115eb565b82525050565b600060208201905061161c60008301846115f8565b92915050565b6000602082840312156116385761163761145f565b5b6000611646848285016114e3565b91505092915050565b6000602082840312156116655761166461145f565b5b6000611673848285016114ad565b91505092915050565b600080604083850312156116935761169261145f565b5b60006116a1858286016114ad565b92505060206116b2858286016114ad565b9150509250929050565b7f4e487b7100000000000000000000000000000000000000000000000000000000600052602260045260246000fd5b6000600282049050600182168061170357607f821691505b60208210811415611717576117166116bc565b5b50919050565b7f54686973207472616e7366657220657863656564732074686520616c6c6f776560008201527f64206c696d697421000000000000000000000000000000000000000000000000602082015250565b60006117796028836113af565b91506117848261171d565b604082019050919050565b600060208201905081810360008301526117a88161176c565b9050919050565b7f4e487b7100000000000000000000000000000000000000000000000000000000600052601160045260246000fd5b60006117e9826114c2565b91506117f4836114c2565b9250827fffffffffffffffffffffffffffffffffffffffffffffffffffffffffffffffff03821115611829576118286117af565b5b828201905092915050565b7f43616e206f6e6c792062652075736564206279204375626f44616f206f72206f60008201527f776e65722e000000000000000000000000000000000000000000000000000000602082015250565b60006118906025836113af565b915061189b82611834565b604082019050919050565b600060208201905081810360008301526118bf81611883565b9050919050565b7f596f75206d75737420626520746865206f776e657220746f2072756e2074686960008201527f732e000000000000000000000000000000000000000000000000000000000000602082015250565b60006119226022836113af565b915061192d826118c6565b604082019050919050565b6000602082019050818103600083015261195181611915565b9050919050565b7f45524332303a2064656372656173656420616c6c6f77616e63652062656c6f7760008201527f207a65726f000000000000000000000000000000000000000000000000000000602082015250565b60006119b46025836113af565b91506119bf82611958565b604082019050919050565b600060208201905081810360008301526119e3816119a7565b9050919050565b7f45524332303a20617070726f76652066726f6d20746865207a65726f2061646460008201527f7265737300000000000000000000000000000000000000000000000000000000602082015250565b6000611a466024836113af565b9150611a51826119ea565b604082019050919050565b60006020820190508181036000830152611a7581611a39565b9050919050565b7f45524332303a20617070726f766520746f20746865207a65726f20616464726560008201527f7373000000000000000000000000000000000000000000000000000000000000602082015250565b6000611ad86022836113af565b9150611ae382611a7c565b604082019050919050565b60006020820190508181036000830152611b0781611acb565b9050919050565b7f45524332303a207472616e7366657220616d6f756e742065786365656473206160008201527f6c6c6f77616e6365000000000000000000000000000000000000000000000000602082015250565b6000611b6a6028836113af565b9150611b7582611b0e565b604082019050919050565b60006020820190508181036000830152611b9981611b5d565b9050919050565b7f45524332303a206275726e2066726f6d20746865207a65726f2061646472657360008201527f7300000000000000000000000000000000000000000000000000000000000000602082015250565b6000611bfc6021836113af565b9150611c0782611ba0565b604082019050919050565b60006020820190508181036000830152611c2b81611bef565b9050919050565b7f45524332303a206275726e20616d6f756e7420657863656564732062616c616e60008201527f6365000000000000000000000000000000000000000000000000000000000000602082015250565b6000611c8e6022836113af565b9150611c9982611c32565b604082019050919050565b60006020820190508181036000830152611cbd81611c81565b9050919050565b6000611ccf826114c2565b9150611cda836114c2565b925082821015611ced57611cec6117af565b5b828203905092915050565b7f45524332303a206d696e7420746f20746865207a65726f206164647265737300600082015250565b6000611d2e601f836113af565b9150611d3982611cf8565b602082019050919050565b60006020820190508181036000830152611d5d81611d21565b9050919050565b7f45524332303a207472616e736665722066726f6d20746865207a65726f20616460008201527f6472657373000000000000000000000000000000000000000000000000000000602082015250565b6000611dc06025836113af565b9150611dcb82611d64565b604082019050919050565b60006020820190508181036000830152611def81611db3565b9050919050565b7f45524332303a207472616e7366657220746f20746865207a65726f206164647260008201527f6573730000000000000000000000000000000000000000000000000000000000602082015250565b6000611e526023836113af565b9150611e5d82611df6565b604082019050919050565b60006020820190508181036000830152611e8181611e45565b9050919050565b7f45524332303a207472616e7366657220616d6f756e742065786365656473206260008201527f616c616e63650000000000000000000000000000000000000000000000000000602082015250565b6000611ee46026836113af565b9150611eef82611e88565b604082019050919050565b60006020820190508181036000830152611f1381611ed7565b905091905056fea264697066735822122049b95b9b1b8443c2f3d81c1dfb3a219ad7533f5c514db890990ad80b3a821a9364736f6c634300080a0033",
  "immutableReferences": {},
  "source": "// SPDX-License-Identifier: MIT\npragma solidity >=0.4.22 <0.9.0;\n\nimport \"@openzeppelin/contracts/token/ERC20/ERC20.sol\";\n\ncontract Omega is ERC20 {\n  address private owner;\n  address private omegaDao;\n  uint private limit = 100000000 * 10 ** 18;\n\n  constructor() ERC20('OM token', 'OM') {\n    owner = msg.sender;\n\n    _mint(msg.sender, 2000000 * 10 ** 18);\n  }\n\n  function setDaoContract(address _omegaDao) public{\n    require(msg.sender == owner, 'You must be the owner to run this.');\n    omegaDao = _omegaDao;\n  }\n\n  function setTranferLimit(uint _limit) public{\n    require(msg.sender == owner, 'You must be the owner to run this.');\n    limit = _limit;\n  }\n\n  function transferFrom(address sender, address recipient, uint256 amount) public override(ERC20) returns (bool) {\n    require(amount <= limit, 'This transfer exceeds the allowed limit!');\n    return super.transferFrom(sender, recipient, amount);\n  }\n\n  function transfer(address recipient, uint256 amount) public override(ERC20) returns (bool) {\n    require(amount <= limit, 'This transfer exceeds the allowed limit!');\n    return super.transfer(recipient, amount);\n  }\n\n  function mint(uint256 _amount) public {\n    require(msg.sender == omegaDao || msg.sender == owner, 'Can only be used by OmegaDao or owner.');\n    _mint(msg.sender, _amount);\n  }\n\n  function burn(uint256 _amount) public {\n    require(msg.sender == omegaDao || msg.sender == owner, 'Can only be used by OmegaDao or owner.');\n    _burn(msg.sender, _amount);\n  }\n}\n",
  "sourcePath": "/Users/bruno/dev/crypto/omega/omega-nodes/contracts/Omega.sol",
  "compiler": {
    "name": "solc",
    "version": "0.8.10+commit.fc410830.Emscripten.clang"
  },
  "schemaVersion": "3.4.3",
  "updatedAt": "2022-01-08T12:27:16.071Z",
  "networkType": "ethereum",
  "devdoc": {
    "kind": "dev",
    "methods": {
      "allowance(address,address)": {
        "details": "See {IERC20-allowance}."
      },
      "approve(address,uint256)": {
        "details": "See {IERC20-approve}. Requirements: - `spender` cannot be the zero address."
      },
      "balanceOf(address)": {
        "details": "See {IERC20-balanceOf}."
      },
      "decimals()": {
        "details": "Returns the number of decimals used to get its user representation. For example, if `decimals` equals `2`, a balance of `505` tokens should be displayed to a user as `5.05` (`505 / 10 ** 2`). Tokens usually opt for a value of 18, imitating the relationship between Ether and Wei. This is the value {ERC20} uses, unless this function is overridden; NOTE: This information is only used for _display_ purposes: it in no way affects any of the arithmetic of the contract, including {IERC20-balanceOf} and {IERC20-transfer}."
      },
      "decreaseAllowance(address,uint256)": {
        "details": "Atomically decreases the allowance granted to `spender` by the caller. This is an alternative to {approve} that can be used as a mitigation for problems described in {IERC20-approve}. Emits an {Approval} event indicating the updated allowance. Requirements: - `spender` cannot be the zero address. - `spender` must have allowance for the caller of at least `subtractedValue`."
      },
      "increaseAllowance(address,uint256)": {
        "details": "Atomically increases the allowance granted to `spender` by the caller. This is an alternative to {approve} that can be used as a mitigation for problems described in {IERC20-approve}. Emits an {Approval} event indicating the updated allowance. Requirements: - `spender` cannot be the zero address."
      },
      "name()": {
        "details": "Returns the name of the token."
      },
      "symbol()": {
        "details": "Returns the symbol of the token, usually a shorter version of the name."
      },
      "totalSupply()": {
        "details": "See {IERC20-totalSupply}."
      },
      "transfer(address,uint256)": {
        "details": "See {IERC20-transfer}. Requirements: - `recipient` cannot be the zero address. - the caller must have a balance of at least `amount`."
      },
      "transferFrom(address,address,uint256)": {
        "details": "See {IERC20-transferFrom}. Emits an {Approval} event indicating the updated allowance. This is not required by the EIP. See the note at the beginning of {ERC20}. Requirements: - `sender` and `recipient` cannot be the zero address. - `sender` must have a balance of at least `amount`. - the caller must have allowance for ``sender``'s tokens of at least `amount`."
      }
    },
    "version": 1
  },
  "userdoc": {
    "kind": "user",
    "methods": {},
    "version": 1
  }
}