{
  "contractName": "OmegaDao2",
  "abi": [
    {
      "inputs": [
        {
          "internalType": "contract Omega",
          "name": "_omegaAddress",
          "type": "address"
        },
        {
          "internalType": "contract Ox",
          "name": "_oxAddress",
          "type": "address"
        },
        {
          "internalType": "address[]",
          "name": "_team",
          "type": "address[]"
        }
      ],
      "stateMutability": "nonpayable",
      "type": "constructor"
    },
    {
      "inputs": [
        {
          "internalType": "address",
          "name": "",
          "type": "address"
        }
      ],
      "name": "accounts",
      "outputs": [
        {
          "internalType": "bool",
          "name": "exists",
          "type": "bool"
        },
        {
          "internalType": "uint256",
          "name": "iotaCount",
          "type": "uint256"
        },
        {
          "internalType": "uint256",
          "name": "lambdaCount",
          "type": "uint256"
        },
        {
          "internalType": "uint256",
          "name": "phiCount",
          "type": "uint256"
        },
        {
          "internalType": "uint256",
          "name": "chiliaCount",
          "type": "uint256"
        },
        {
          "internalType": "uint256",
          "name": "tabithaCount",
          "type": "uint256"
        },
        {
          "internalType": "uint256",
          "name": "interestAccumulated",
          "type": "uint256"
        }
      ],
      "stateMutability": "view",
      "type": "function",
      "constant": true
    },
    {
      "inputs": [],
      "name": "omegaAddress",
      "outputs": [
        {
          "internalType": "contract Omega",
          "name": "",
          "type": "address"
        }
      ],
      "stateMutability": "view",
      "type": "function",
      "constant": true
    },
    {
      "inputs": [],
      "name": "omegaInterestRatePercent",
      "outputs": [
        {
          "internalType": "uint256",
          "name": "",
          "type": "uint256"
        }
      ],
      "stateMutability": "view",
      "type": "function",
      "constant": true
    },
    {
      "inputs": [
        {
          "internalType": "uint256",
          "name": "",
          "type": "uint256"
        }
      ],
      "name": "omegaNodesAddresses",
      "outputs": [
        {
          "internalType": "address",
          "name": "",
          "type": "address"
        }
      ],
      "stateMutability": "view",
      "type": "function",
      "constant": true
    },
    {
      "inputs": [],
      "name": "oxAddress",
      "outputs": [
        {
          "internalType": "contract Ox",
          "name": "",
          "type": "address"
        }
      ],
      "stateMutability": "view",
      "type": "function",
      "constant": true
    },
    {
      "inputs": [
        {
          "internalType": "uint256",
          "name": "",
          "type": "uint256"
        }
      ],
      "name": "nodeMultiplers",
      "outputs": [
        {
          "internalType": "uint256",
          "name": "",
          "type": "uint256"
        }
      ],
      "stateMutability": "view",
      "type": "function",
      "constant": true
    },
    {
      "inputs": [],
      "name": "totalNodes",
      "outputs": [
        {
          "internalType": "uint256",
          "name": "",
          "type": "uint256"
        }
      ],
      "stateMutability": "view",
      "type": "function",
      "constant": true
    },
    {
      "inputs": [
        {
          "internalType": "address",
          "name": "_address",
          "type": "address"
        },
        {
          "internalType": "uint256",
          "name": "_omegaAmount",
          "type": "uint256"
        },
        {
          "internalType": "uint256",
          "name": "_oxAmount",
          "type": "uint256"
        },
        {
          "internalType": "uint256",
          "name": "_nodeType",
          "type": "uint256"
        }
      ],
      "name": "mintNode",
      "outputs": [],
      "stateMutability": "nonpayable",
      "type": "function"
    },
    {
      "inputs": [
        {
          "internalType": "address",
          "name": "_to",
          "type": "address"
        }
      ],
      "name": "widthrawInterest",
      "outputs": [],
      "stateMutability": "nonpayable",
      "type": "function"
    },
    {
      "inputs": [],
      "name": "payInterest",
      "outputs": [],
      "stateMutability": "nonpayable",
      "type": "function"
    },
    {
      "inputs": [],
      "name": "balancePool",
      "outputs": [],
      "stateMutability": "nonpayable",
      "type": "function"
    },
    {
      "inputs": [
        {
          "internalType": "uint256",
          "name": "_newRate",
          "type": "uint256"
        }
      ],
      "name": "changeInterestRate",
      "outputs": [],
      "stateMutability": "nonpayable",
      "type": "function"
    },
    {
      "inputs": [
        {
          "internalType": "address",
          "name": "_dead",
          "type": "address"
        },
        {
          "internalType": "uint256",
          "name": "amount",
          "type": "uint256"
        }
      ],
      "name": "burnOmega",
      "outputs": [],
      "stateMutability": "nonpayable",
      "type": "function"
    },
    {
      "inputs": [
        {
          "internalType": "address",
          "name": "_pool",
          "type": "address"
        },
        {
          "internalType": "uint256",
          "name": "amount",
          "type": "uint256"
        }
      ],
      "name": "addOxToLiquidityPool",
      "outputs": [],
      "stateMutability": "nonpayable",
      "type": "function"
    },
    {
      "inputs": [
        {
          "internalType": "address",
          "name": "_address",
          "type": "address"
        },
        {
          "internalType": "uint256",
          "name": "_nodeType",
          "type": "uint256"
        }
      ],
      "name": "awardNode",
      "outputs": [],
      "stateMutability": "nonpayable",
      "type": "function"
    }
  ],
  "bytecode": "0x60806040526040518060a00160405280600160ff168152602001600360ff168152602001600760ff168152602001601060ff168152602001606460ff1681525060079060056200005192919062000315565b503480156200005f57600080fd5b506040516200335438038062003354833981810160405281019062000085919062000603565b33600460006101000a81548173ffffffffffffffffffffffffffffffffffffffff021916908373ffffffffffffffffffffffffffffffffffffffff16021790555082600260006101000a81548173ffffffffffffffffffffffffffffffffffffffff021916908373ffffffffffffffffffffffffffffffffffffffff16021790555081600360006101000a81548173ffffffffffffffffffffffffffffffffffffffff021916908373ffffffffffffffffffffffffffffffffffffffff160217905550606460058190555060005b81518110156200030b5760018282815181106200017557620001746200067e565b5b60200260200101519080600181540180825580915050600190039060005260206000200160009091909190916101000a81548173ffffffffffffffffffffffffffffffffffffffff021916908373ffffffffffffffffffffffffffffffffffffffff16021790555060006040518060e0016040528060011515815260200160008152602001600081526020016000815260200160008152602001600a81526020016000815250905080600660008585815181106200023857620002376200067e565b5b602002602001015173ffffffffffffffffffffffffffffffffffffffff1673ffffffffffffffffffffffffffffffffffffffff16815260200190815260200160002060008201518160000160006101000a81548160ff0219169083151502179055506020820151816001015560408201518160020155606082015181600301556080820151816004015560a0820151816005015560c08201518160060155905050600a600080828254620002ed9190620006e6565b92505081905550508080620003029062000743565b91505062000153565b5050505062000791565b82805482825590600052602060002090810192821562000359579160200282015b8281111562000358578251829060ff1690559160200191906001019062000336565b5b5090506200036891906200036c565b5090565b5b80821115620003875760008160009055506001016200036d565b5090565b6000604051905090565b600080fd5b600080fd5b600073ffffffffffffffffffffffffffffffffffffffff82169050919050565b6000620003cc826200039f565b9050919050565b6000620003e082620003bf565b9050919050565b620003f281620003d3565b8114620003fe57600080fd5b50565b6000815190506200041281620003e7565b92915050565b60006200042582620003bf565b9050919050565b620004378162000418565b81146200044357600080fd5b50565b60008151905062000457816200042c565b92915050565b600080fd5b6000601f19601f8301169050919050565b7f4e487b7100000000000000000000000000000000000000000000000000000000600052604160045260246000fd5b620004ad8262000462565b810181811067ffffffffffffffff82111715620004cf57620004ce62000473565b5b80604052505050565b6000620004e46200038b565b9050620004f28282620004a2565b919050565b600067ffffffffffffffff82111562000515576200051462000473565b5b602082029050602081019050919050565b600080fd5b6200053681620003bf565b81146200054257600080fd5b50565b60008151905062000556816200052b565b92915050565b6000620005736200056d84620004f7565b620004d8565b9050808382526020820190506020840283018581111562000599576200059862000526565b5b835b81811015620005c65780620005b1888262000545565b8452602084019350506020810190506200059b565b5050509392505050565b600082601f830112620005e857620005e76200045d565b5b8151620005fa8482602086016200055c565b91505092915050565b6000806000606084860312156200061f576200061e62000395565b5b60006200062f8682870162000401565b9350506020620006428682870162000446565b925050604084015167ffffffffffffffff8111156200066657620006656200039a565b5b6200067486828701620005d0565b9150509250925092565b7f4e487b7100000000000000000000000000000000000000000000000000000000600052603260045260246000fd5b6000819050919050565b7f4e487b7100000000000000000000000000000000000000000000000000000000600052601160045260246000fd5b6000620006f382620006ad565b91506200070083620006ad565b9250827fffffffffffffffffffffffffffffffffffffffffffffffffffffffffffffffff03821115620007385762000737620006b7565b5b828201905092915050565b60006200075082620006ad565b91507fffffffffffffffffffffffffffffffffffffffffffffffffffffffffffffffff821415620007865762000785620006b7565b5b600182019050919050565b612bb380620007a16000396000f3fe608060405234801561001057600080fd5b50600436106100f55760003560e01c806370c152d211610097578063a15a211c11610066578063a15a211c14610252578063a4299ba81461025c578063b1bf2bfe1461028c578063f5d93f52146102a8576100f5565b806370c152d2146101de57806370eb843b1461020e57806375166473146102185780639592d42414610234576100f5565b80633e297602116100d35780633e297602146101505780633ebb00b81461016c578063476e650b1461018a5780635e5c06e2146101a8576100f5565b80630d3e057b146100fa5780631387d612146101165780632c38727514610132575b600080fd5b610114600480360381019061010f9190611daf565b6102c4565b005b610130600480360381019061012b9190611e16565b610adb565b005b61013a610c10565b6040516101479190611eb5565b60405180910390f35b61016a60048036038101906101659190611e16565b610c36565b005b610174610d6b565b6040516101819190611ef1565b60405180910390f35b610192610d91565b60405161019f9190611f1b565b60405180910390f35b6101c260048036038101906101bd9190611f36565b610d97565b6040516101d59796959493929190611f7e565b60405180910390f35b6101f860048036038101906101f39190611fed565b610de6565b6040516102059190612029565b60405180910390f35b610216610e25565b005b610232600480360381019061022d9190611e16565b6111ee565b005b61023c611594565b6040516102499190611f1b565b60405180910390f35b61025a61159a565b005b61027660048036038101906102719190611fed565b6119f2565b6040516102839190611f1b565b60405180910390f35b6102a660048036038101906102a19190611f36565b611a16565b005b6102c260048036038101906102bd9190611fed565b611c3d565b005b8373ffffffffffffffffffffffffffffffffffffffff163373ffffffffffffffffffffffffffffffffffffffff1614610332576040517f08c379a0000000000000000000000000000000000000000000000000000000008152600401610329906120a1565b60405180910390fd5b60008110158015610344575060048111155b610383576040517f08c379a000000000000000000000000000000000000000000000000000000000815260040161037a9061210d565b60405180910390fd5b61038b611cd7565b600660008673ffffffffffffffffffffffffffffffffffffffff1673ffffffffffffffffffffffffffffffffffffffff16815260200190815260200160002060000160009054906101000a900460ff161561048857600660008673ffffffffffffffffffffffffffffffffffffffff1673ffffffffffffffffffffffffffffffffffffffff1681526020019081526020016000206040518060e00160405290816000820160009054906101000a900460ff161515151581526020016001820154815260200160028201548152602001600382015481526020016004820154815260200160058201548152602001600682015481525050905061052a565b6040518060e001604052806001151581526020016000815260200160008152602001600081526020016000815260200160008152602001600081525090506001859080600181540180825580915050600190039060005260206000200160009091909190916101000a81548173ffffffffffffffffffffffffffffffffffffffff021916908373ffffffffffffffffffffffffffffffffffffffff1602179055505b60008214156105e65768056bc75e2d6310000084101561057f576040517f08c379a00000000000000000000000000000000000000000000000000000000081526004016105769061219f565b60405180910390fd5b68056bc75e2d631000008310156105cb576040517f08c379a00000000000000000000000000000000000000000000000000000000081526004016105c290612231565b60405180910390fd5b8060200180518091906105dd90612280565b815250506108d8565b60018214156106a257680d8d726b7177a8000084101561063b576040517f08c379a00000000000000000000000000000000000000000000000000000000081526004016106329061233b565b60405180910390fd5b680d8d726b7177a80000831015610687576040517f08c379a000000000000000000000000000000000000000000000000000000000815260040161067e906123cd565b60405180910390fd5b80604001805180919061069990612280565b815250506108d7565b600282141561075e57681b1ae4d6e2ef5000008410156106f7576040517f08c379a00000000000000000000000000000000000000000000000000000000081526004016106ee9061245f565b60405180910390fd5b681b1ae4d6e2ef500000831015610743576040517f08c379a000000000000000000000000000000000000000000000000000000000815260040161073a906124f1565b60405180910390fd5b80606001805180919061075590612280565b815250506108d6565b600382141561081a57683635c9adc5dea000008410156107b3576040517f08c379a00000000000000000000000000000000000000000000000000000000081526004016107aa90612583565b60405180910390fd5b683635c9adc5dea000008310156107ff576040517f08c379a00000000000000000000000000000000000000000000000000000000081526004016107f690612615565b60405180910390fd5b80608001805180919061081190612280565b815250506108d5565b60048214156108d45769010f0cf064dd59200000841015610870576040517f08c379a0000000000000000000000000000000000000000000000000000000008152600401610867906126a7565b60405180910390fd5b69010f0cf064dd592000008310156108bd576040517f08c379a00000000000000000000000000000000000000000000000000000000081526004016108b490612739565b60405180910390fd5b8060a00180518091906108cf90612280565b815250505b5b5b5b5b6000808154809291906108ea90612280565b919050555080600660008773ffffffffffffffffffffffffffffffffffffffff1673ffffffffffffffffffffffffffffffffffffffff16815260200190815260200160002060008201518160000160006101000a81548160ff0219169083151502179055506020820151816001015560408201518160020155606082015181600301556080820151816004015560a0820151816005015560c08201518160060155905050600260009054906101000a900473ffffffffffffffffffffffffffffffffffffffff1673ffffffffffffffffffffffffffffffffffffffff166323b872dd8630876040518463ffffffff1660e01b81526004016109ed93929190612759565b6020604051808303816000875af1158015610a0c573d6000803e3d6000fd5b505050506040513d601f19601f82011682018060405250810190610a3091906127bc565b50600360009054906101000a900473ffffffffffffffffffffffffffffffffffffffff1673ffffffffffffffffffffffffffffffffffffffff166323b872dd8630866040518463ffffffff1660e01b8152600401610a9093929190612759565b6020604051808303816000875af1158015610aaf573d6000803e3d6000fd5b505050506040513d601f19601f82011682018060405250810190610ad391906127bc565b505050505050565b600460009054906101000a900473ffffffffffffffffffffffffffffffffffffffff1673ffffffffffffffffffffffffffffffffffffffff163373ffffffffffffffffffffffffffffffffffffffff1614610b6b576040517f08c379a0000000000000000000000000000000000000000000000000000000008152600401610b629061285b565b60405180910390fd5b600260009054906101000a900473ffffffffffffffffffffffffffffffffffffffff1673ffffffffffffffffffffffffffffffffffffffff1663a9059cbb83836040518363ffffffff1660e01b8152600401610bc892919061287b565b6020604051808303816000875af1158015610be7573d6000803e3d6000fd5b505050506040513d601f19601f82011682018060405250810190610c0b91906127bc565b505050565b600360009054906101000a900473ffffffffffffffffffffffffffffffffffffffff1681565b600460009054906101000a900473ffffffffffffffffffffffffffffffffffffffff1673ffffffffffffffffffffffffffffffffffffffff163373ffffffffffffffffffffffffffffffffffffffff1614610cc6576040517f08c379a0000000000000000000000000000000000000000000000000000000008152600401610cbd9061285b565b60405180910390fd5b600360009054906101000a900473ffffffffffffffffffffffffffffffffffffffff1673ffffffffffffffffffffffffffffffffffffffff1663a9059cbb83836040518363ffffffff1660e01b8152600401610d2392919061287b565b6020604051808303816000875af1158015610d42573d6000803e3d6000fd5b505050506040513d601f19601f82011682018060405250810190610d6691906127bc565b505050565b600260009054906101000a900473ffffffffffffffffffffffffffffffffffffffff1681565b60055481565b60066020528060005260406000206000915090508060000160009054906101000a900460ff16908060010154908060020154908060030154908060040154908060050154908060060154905087565b60018181548110610df657600080fd5b906000526020600020016000915054906101000a900473ffffffffffffffffffffffffffffffffffffffff1681565b600460009054906101000a900473ffffffffffffffffffffffffffffffffffffffff1673ffffffffffffffffffffffffffffffffffffffff163373ffffffffffffffffffffffffffffffffffffffff1614610eb5576040517f08c379a0000000000000000000000000000000000000000000000000000000008152600401610eac9061285b565b60405180910390fd5b6000670de0b6b3a7640000600260009054906101000a900473ffffffffffffffffffffffffffffffffffffffff1673ffffffffffffffffffffffffffffffffffffffff166370a08231306040518263ffffffff1660e01b8152600401610f1b9190612029565b602060405180830381865afa158015610f38573d6000803e3d6000fd5b505050506040513d601f19601f82011682018060405250810190610f5c91906128b9565b610f669190612915565b9050600060646007600481548110610f8157610f80612946565b5b9060005260206000200154600554600054610f9c9190612975565b610fa69190612975565b610fb09190612915565b82610fbb9190612915565b90506103848111156110d557600060646007600481548110610fe057610fdf612946565b5b906000526020600020015460005460055461016d610ffe9190612975565b6110089190612975565b6110129190612975565b61101c9190612915565b90506000818461102c91906129cf565b9050600260009054906101000a900473ffffffffffffffffffffffffffffffffffffffff1673ffffffffffffffffffffffffffffffffffffffff166342966c68670de0b6b3a7640000836110809190612975565b6040518263ffffffff1660e01b815260040161109c9190611f1b565b600060405180830381600087803b1580156110b657600080fd5b505af11580156110ca573d6000803e3d6000fd5b5050505050506111ea565b6101688110156111e9576000606460076004815481106110f8576110f7612946565b5b906000526020600020015460005460055461016d6111169190612975565b6111209190612975565b61112a9190612975565b6111349190612915565b90506000838261114491906129cf565b9050600260009054906101000a900473ffffffffffffffffffffffffffffffffffffffff1673ffffffffffffffffffffffffffffffffffffffff1663a0712d68670de0b6b3a7640000836111989190612975565b6040518263ffffffff1660e01b81526004016111b49190611f1b565b600060405180830381600087803b1580156111ce57600080fd5b505af11580156111e2573d6000803e3d6000fd5b5050505050505b5b5050565b600460009054906101000a900473ffffffffffffffffffffffffffffffffffffffff1673ffffffffffffffffffffffffffffffffffffffff163373ffffffffffffffffffffffffffffffffffffffff161461127e576040517f08c379a00000000000000000000000000000000000000000000000000000000081526004016112759061285b565b60405180910390fd5b611286611cd7565b600660008473ffffffffffffffffffffffffffffffffffffffff1673ffffffffffffffffffffffffffffffffffffffff16815260200190815260200160002060000160009054906101000a900460ff161561138357600660008473ffffffffffffffffffffffffffffffffffffffff1673ffffffffffffffffffffffffffffffffffffffff1681526020019081526020016000206040518060e00160405290816000820160009054906101000a900460ff1615151515815260200160018201548152602001600282015481526020016003820154815260200160048201548152602001600582015481526020016006820154815250509050611425565b6040518060e001604052806001151581526020016000815260200160008152602001600081526020016000815260200160008152602001600081525090506001839080600181540180825580915050600190039060005260206000200160009091909190916101000a81548173ffffffffffffffffffffffffffffffffffffffff021916908373ffffffffffffffffffffffffffffffffffffffff1602179055505b60008214156114495780602001805180919061144090612280565b815250506114d9565b600182141561146d5780604001805180919061146490612280565b815250506114d8565b60028214156114915780606001805180919061148890612280565b815250506114d7565b60038214156114b5578060800180518091906114ac90612280565b815250506114d6565b60048214156114d5578060a00180518091906114d090612280565b815250505b5b5b5b5b6000808154809291906114eb90612280565b919050555080600660008573ffffffffffffffffffffffffffffffffffffffff1673ffffffffffffffffffffffffffffffffffffffff16815260200190815260200160002060008201518160000160006101000a81548160ff0219169083151502179055506020820151816001015560408201518160020155606082015181600301556080820151816004015560a0820151816005015560c08201518160060155905050505050565b60005481565b600460009054906101000a900473ffffffffffffffffffffffffffffffffffffffff1673ffffffffffffffffffffffffffffffffffffffff163373ffffffffffffffffffffffffffffffffffffffff161461162a576040517f08c379a00000000000000000000000000000000000000000000000000000000081526004016116219061285b565b60405180910390fd5b60005b6001805490508110156119ef576000600182815481106116505761164f612946565b5b9060005260206000200160009054906101000a900473ffffffffffffffffffffffffffffffffffffffff1690506000600660008373ffffffffffffffffffffffffffffffffffffffff1673ffffffffffffffffffffffffffffffffffffffff1681526020019081526020016000206040518060e00160405290816000820160009054906101000a900460ff161515151581526020016001820154815260200160028201548152602001600382015481526020016004820154815260200160058201548152602001600682015481525050905060006064670de0b6b3a7640000600554600760008154811061174757611746612946565b5b906000526020600020015485602001516117619190612975565b61176b9190612975565b6117759190612975565b61177f9190612915565b90506064670de0b6b3a764000060055460076001815481106117a4576117a3612946565b5b906000526020600020015485604001516117be9190612975565b6117c89190612975565b6117d29190612975565b6117dc9190612915565b816117e79190612a03565b90506064670de0b6b3a7640000600554600760028154811061180c5761180b612946565b5b906000526020600020015485606001516118269190612975565b6118309190612975565b61183a9190612975565b6118449190612915565b8161184f9190612a03565b90506064670de0b6b3a7640000600554600760038154811061187457611873612946565b5b9060005260206000200154856080015161188e9190612975565b6118989190612975565b6118a29190612975565b6118ac9190612915565b816118b79190612a03565b90506064670de0b6b3a764000060055460076004815481106118dc576118db612946565b5b90600052602060002001548560a001516118f69190612975565b6119009190612975565b61190a9190612975565b6119149190612915565b8161191f9190612a03565b9050808260c0018181516119339190612a03565b9150818152505081600660008573ffffffffffffffffffffffffffffffffffffffff1673ffffffffffffffffffffffffffffffffffffffff16815260200190815260200160002060008201518160000160006101000a81548160ff0219169083151502179055506020820151816001015560408201518160020155606082015181600301556080820151816004015560a0820151816005015560c0820151816006015590505050505080806119e790612280565b91505061162d565b50565b60078181548110611a0257600080fd5b906000526020600020016000915090505481565b8073ffffffffffffffffffffffffffffffffffffffff163373ffffffffffffffffffffffffffffffffffffffff1614611a84576040517f08c379a0000000000000000000000000000000000000000000000000000000008152600401611a7b90612acb565b60405180910390fd5b6000600660008373ffffffffffffffffffffffffffffffffffffffff1673ffffffffffffffffffffffffffffffffffffffff1681526020019081526020016000206006015411611b09576040517f08c379a0000000000000000000000000000000000000000000000000000000008152600401611b0090612b5d565b60405180910390fd5b6000600660008373ffffffffffffffffffffffffffffffffffffffff1673ffffffffffffffffffffffffffffffffffffffff1681526020019081526020016000206006015490506000600660008473ffffffffffffffffffffffffffffffffffffffff1673ffffffffffffffffffffffffffffffffffffffff16815260200190815260200160002060060181905550600260009054906101000a900473ffffffffffffffffffffffffffffffffffffffff1673ffffffffffffffffffffffffffffffffffffffff1663a9059cbb83836040518363ffffffff1660e01b8152600401611bf592919061287b565b6020604051808303816000875af1158015611c14573d6000803e3d6000fd5b505050506040513d601f19601f82011682018060405250810190611c3891906127bc565b505050565b600460009054906101000a900473ffffffffffffffffffffffffffffffffffffffff1673ffffffffffffffffffffffffffffffffffffffff163373ffffffffffffffffffffffffffffffffffffffff1614611ccd576040517f08c379a0000000000000000000000000000000000000000000000000000000008152600401611cc49061285b565b60405180910390fd5b8060058190555050565b6040518060e001604052806000151581526020016000815260200160008152602001600081526020016000815260200160008152602001600081525090565b600080fd5b600073ffffffffffffffffffffffffffffffffffffffff82169050919050565b6000611d4682611d1b565b9050919050565b611d5681611d3b565b8114611d6157600080fd5b50565b600081359050611d7381611d4d565b92915050565b6000819050919050565b611d8c81611d79565b8114611d9757600080fd5b50565b600081359050611da981611d83565b92915050565b60008060008060808587031215611dc957611dc8611d16565b5b6000611dd787828801611d64565b9450506020611de887828801611d9a565b9350506040611df987828801611d9a565b9250506060611e0a87828801611d9a565b91505092959194509250565b60008060408385031215611e2d57611e2c611d16565b5b6000611e3b85828601611d64565b9250506020611e4c85828601611d9a565b9150509250929050565b6000819050919050565b6000611e7b611e76611e7184611d1b565b611e56565b611d1b565b9050919050565b6000611e8d82611e60565b9050919050565b6000611e9f82611e82565b9050919050565b611eaf81611e94565b82525050565b6000602082019050611eca6000830184611ea6565b92915050565b6000611edb82611e82565b9050919050565b611eeb81611ed0565b82525050565b6000602082019050611f066000830184611ee2565b92915050565b611f1581611d79565b82525050565b6000602082019050611f306000830184611f0c565b92915050565b600060208284031215611f4c57611f4b611d16565b5b6000611f5a84828501611d64565b91505092915050565b60008115159050919050565b611f7881611f63565b82525050565b600060e082019050611f93600083018a611f6f565b611fa06020830189611f0c565b611fad6040830188611f0c565b611fba6060830187611f0c565b611fc76080830186611f0c565b611fd460a0830185611f0c565b611fe160c0830184611f0c565b98975050505050505050565b60006020828403121561200357612002611d16565b5b600061201184828501611d9a565b91505092915050565b61202381611d3b565b82525050565b600060208201905061203e600083018461201a565b92915050565b600082825260208201905092915050565b7f4f6e6c7920757365722063616e206372656174652061206e6f64652e00000000600082015250565b600061208b601c83612044565b915061209682612055565b602082019050919050565b600060208201905081810360008301526120ba8161207e565b9050919050565b7f496e76616c6964206e6f64652074797065000000000000000000000000000000600082015250565b60006120f7601183612044565b9150612102826120c1565b602082019050919050565b60006020820190508181036000830152612126816120ea565b9050919050565b7f596f75206d7573742070726f76696465206174206c656173742031303020435560008201527f424f20666f7220746865204c5020746f6b656e00000000000000000000000000602082015250565b6000612189603383612044565b91506121948261212d565b604082019050919050565b600060208201905081810360008301526121b88161217c565b9050919050565b7f596f75206d7573742070726f76696465206174206c656173742031303020444160008201527f4920666f7220746865204c5020746f6b656e0000000000000000000000000000602082015250565b600061221b603283612044565b9150612226826121bf565b604082019050919050565b6000602082019050818103600083015261224a8161220e565b9050919050565b7f4e487b7100000000000000000000000000000000000000000000000000000000600052601160045260246000fd5b600061228b82611d79565b91507fffffffffffffffffffffffffffffffffffffffffffffffffffffffffffffffff8214156122be576122bd612251565b5b600182019050919050565b7f596f75206d7573742070726f76696465206174206c656173742032353020435560008201527f424f20666f7220746865204c5020746f6b656e00000000000000000000000000602082015250565b6000612325603383612044565b9150612330826122c9565b604082019050919050565b6000602082019050818103600083015261235481612318565b9050919050565b7f596f75206d7573742070726f76696465206174206c656173742032353020444160008201527f4920666f7220746865204c5020746f6b656e0000000000000000000000000000602082015250565b60006123b7603283612044565b91506123c28261235b565b604082019050919050565b600060208201905081810360008301526123e6816123aa565b9050919050565b7f596f75206d7573742070726f76696465206174206c656173742035303020435560008201527f424f20666f7220746865204c5020746f6b656e00000000000000000000000000602082015250565b6000612449603383612044565b9150612454826123ed565b604082019050919050565b600060208201905081810360008301526124788161243c565b9050919050565b7f596f75206d7573742070726f76696465206174206c656173742035303020444160008201527f4920666f7220746865204c5020746f6b656e0000000000000000000000000000602082015250565b60006124db603283612044565b91506124e68261247f565b604082019050919050565b6000602082019050818103600083015261250a816124ce565b9050919050565b7f596f75206d7573742070726f76696465206174206c656173742031303030204360008201527f55424f20666f7220746865204c5020746f6b656e000000000000000000000000602082015250565b600061256d603483612044565b915061257882612511565b604082019050919050565b6000602082019050818103600083015261259c81612560565b9050919050565b7f596f75206d7573742070726f76696465206174206c656173742031303030204460008201527f414920666f7220746865204c5020746f6b656e00000000000000000000000000602082015250565b60006125ff603383612044565b915061260a826125a3565b604082019050919050565b6000602082019050818103600083015261262e816125f2565b9050919050565b7f596f75206d7573742070726f76696465206174206c656173742035303030204360008201527f55424f20666f7220746865204c5020746f6b656e000000000000000000000000602082015250565b6000612691603483612044565b915061269c82612635565b604082019050919050565b600060208201905081810360008301526126c081612684565b9050919050565b7f596f75206d7573742070726f76696465206174206c656173742035303030204460008201527f414920666f7220746865204c5020746f6b656e00000000000000000000000000602082015250565b6000612723603383612044565b915061272e826126c7565b604082019050919050565b6000602082019050818103600083015261275281612716565b9050919050565b600060608201905061276e600083018661201a565b61277b602083018561201a565b6127886040830184611f0c565b949350505050565b61279981611f63565b81146127a457600080fd5b50565b6000815190506127b681612790565b92915050565b6000602082840312156127d2576127d1611d16565b5b60006127e0848285016127a7565b91505092915050565b7f596f75206d75737420626520746865206f776e657220746f2072756e2074686960008201527f732e000000000000000000000000000000000000000000000000000000000000602082015250565b6000612845602283612044565b9150612850826127e9565b604082019050919050565b6000602082019050818103600083015261287481612838565b9050919050565b6000604082019050612890600083018561201a565b61289d6020830184611f0c565b9392505050565b6000815190506128b381611d83565b92915050565b6000602082840312156128cf576128ce611d16565b5b60006128dd848285016128a4565b91505092915050565b7f4e487b7100000000000000000000000000000000000000000000000000000000600052601260045260246000fd5b600061292082611d79565b915061292b83611d79565b92508261293b5761293a6128e6565b5b828204905092915050565b7f4e487b7100000000000000000000000000000000000000000000000000000000600052603260045260246000fd5b600061298082611d79565b915061298b83611d79565b9250817fffffffffffffffffffffffffffffffffffffffffffffffffffffffffffffffff04831182151516156129c4576129c3612251565b5b828202905092915050565b60006129da82611d79565b91506129e583611d79565b9250828210156129f8576129f7612251565b5b828203905092915050565b6000612a0e82611d79565b9150612a1983611d79565b9250827fffffffffffffffffffffffffffffffffffffffffffffffffffffffffffffffff03821115612a4e57612a4d612251565b5b828201905092915050565b7f4f6e6c7920757365722063616e20776964746872617720697473206f776e206660008201527f756e64732e000000000000000000000000000000000000000000000000000000602082015250565b6000612ab5602583612044565b9150612ac082612a59565b604082019050919050565b60006020820190508181036000830152612ae481612aa8565b9050919050565b7f496e74657265737420616363756d756c61746564206d7573742062652067726560008201527f61746572207468616e207a65726f2e0000000000000000000000000000000000602082015250565b6000612b47602f83612044565b9150612b5282612aeb565b604082019050919050565b60006020820190508181036000830152612b7681612b3a565b905091905056fea2646970667358221220991a5de0141a8877173e484a745e084209cb341e125cccb0a48830361bdb117a64736f6c634300080a0033",
  "immutableReferences": {},
  "source": "// SPDX-License-Identifier: MIT\npragma solidity >=0.4.22 <0.9.0;\n\nimport \"./Omega.sol\";\nimport \"./Ox.sol\";\n\ncontract OmegaDao2 {\n  uint public totalNodes;\n  address [] public omegaNodesAddresses;\n\n  Omega public omegaAddress;\n  Ox public oxAddress;\n  address private owner;\n  uint public omegaInterestRatePercent;\n\n  struct Account {\n    bool exists;\n    uint iotaCount;\n    uint lambdaCount;\n    uint phiCount;\n    uint chiliaCount;\n    uint tabithaCount;\n    uint interestAccumulated;\n  }\n\n  mapping(address => Account) public accounts;\n\n  // 0.5%, 0.6%, 0.7%, 0.8%, 1% /day\n  uint [] public nodeMultiplers = [1, 3, 7, 16, 100];\n\n  constructor(Omega _omegaAddress, Ox _oxAddress, address [] memory _team) {\n    owner = msg.sender;\n    omegaAddress = _omegaAddress;\n    oxAddress = _oxAddress;\n    omegaInterestRatePercent = 1 * 100;\n\n    // create 10 Giga nodes for each team member\n    uint i;\n    for(i=0; i < _team.length; i++){\n      omegaNodesAddresses.push(_team[i]);\n      Account memory account = Account(true, 0, 0, 0, 0, 10, 0);\n      accounts[_team[i]] = account;\n      totalNodes += 10;\n    }\n  }\n\n  function mintNode(address _address, uint _omegaAmount, uint _oxAmount, uint _nodeType) public {\n    require(msg.sender == _address, 'Only user can create a node.');\n    require(_nodeType >= 0 && _nodeType <= 4, 'Invalid node type');\n\n    Account memory account;\n\n    if(accounts[_address].exists){\n      account = accounts[_address];\n    }\n    else{\n      account = Account(true, 0, 0, 0, 0, 0, 0);\n      omegaNodesAddresses.push(_address);\n    }\n\n    if(_nodeType == 0){\n      require(_omegaAmount >= 100 * 10 ** 18, 'You must provide at least 100 OM for the LP token');\n      require(_oxAmount >= 100 * 10 ** 18, 'You must provide at least 100 OX for the LP token');\n      account.iotaCount++;\n    }\n    else if(_nodeType == 1){\n      require(_omegaAmount >= 250 * 10 ** 18, 'You must provide at least 250 OM for the LP token');\n      require(_oxAmount >= 250 * 10 ** 18, 'You must provide at least 250 OX for the LP token');\n      account.lambdaCount++;\n    }\n    else if(_nodeType == 2){\n      require(_omegaAmount >= 500 * 10 ** 18, 'You must provide at least 500 OM for the LP token');\n      require(_oxAmount >= 500 * 10 ** 18, 'You must provide at least 500 OX for the LP token');\n      account.phiCount++;\n    }\n    else if(_nodeType == 3){\n      require(_omegaAmount >= 1000 * 10 ** 18, 'You must provide at least 1000 OM for the LP token');\n      require(_oxAmount >= 1000 * 10 ** 18, 'You must provide at least 1000 OX for the LP token');\n      account.chiliaCount++;\n    }\n    else if(_nodeType == 4){\n      require(_omegaAmount >= 5000 * 10 ** 18, 'You must provide at least 5000 OM for the LP token');\n      require(_oxAmount >= 5000 * 10 ** 18, 'You must provide at least 5000 OX for the LP token');\n      account.tabithaCount++;\n    }\n    totalNodes++;\n    accounts[_address] = account;\n\n    omegaAddress.transferFrom(_address, address(this), _omegaAmount);\n    oxAddress.transferFrom(_address, address(this), _oxAmount);\n  }\n\n  function widthrawInterest(address _to) public {\n    require(msg.sender == _to, 'Only user can widthraw its own funds.');\n    require(accounts[_to].interestAccumulated > 0, 'Interest accumulated must be greater than zero.');\n\n    uint amount = accounts[_to].interestAccumulated;\n    accounts[_to].interestAccumulated = 0;\n\n    omegaAddress.transfer(_to, amount);\n  }\n\n  // runs daily at midnight\n  function payInterest() public {\n    require(msg.sender == owner, 'You must be the owner to run this.');\n\n    uint i;\n    for(i=0; i<omegaNodesAddresses.length; i++){\n      address a = omegaNodesAddresses[i];\n      Account memory acc = accounts[a];\n      uint interestAccumulated;\n\n      // add omegaInterestRatePercent/100 OM per node that address has\n      interestAccumulated = (acc.iotaCount * nodeMultiplers[0] * omegaInterestRatePercent * 10 ** 18) / 100;\n      interestAccumulated += (acc.lambdaCount * nodeMultiplers[1] * omegaInterestRatePercent * 10 ** 18) / 100;\n      interestAccumulated += (acc.phiCount * nodeMultiplers[2] * omegaInterestRatePercent * 10 ** 18) / 100;\n      interestAccumulated += (acc.chiliaCount * nodeMultiplers[3] * omegaInterestRatePercent * 10 ** 18) / 100;\n      interestAccumulated += (acc.tabithaCount * nodeMultiplers[4] * omegaInterestRatePercent * 10 ** 18) / 100;\n\n      acc.interestAccumulated += interestAccumulated;\n\n      accounts[a] = acc; // Do I need this line??\n    }\n  }\n\n  // runs daily at 2AM\n  function balancePool() public {\n    require(msg.sender == owner, 'You must be the owner to run this.');\n\n    uint poolAmount = omegaAddress.balanceOf(address(this)) / 10 ** 18;\n    uint runwayInDays = poolAmount/((totalNodes * omegaInterestRatePercent * nodeMultiplers[4]) / 100);\n    if(runwayInDays > 900){\n      uint newTotalTokens = (365 * omegaInterestRatePercent * totalNodes * nodeMultiplers[4]) / 100; // 365 is the desired runway\n      uint amountToBurn = poolAmount - newTotalTokens;\n      omegaAddress.burn(amountToBurn * 10 ** 18);\n    }\n    else if(runwayInDays < 360){\n      uint newTotalTokens = (365 * omegaInterestRatePercent * totalNodes * nodeMultiplers[4]) / 100; // 365 is the desired runway\n      uint amountToMint = newTotalTokens - poolAmount;\n      omegaAddress.mint(amountToMint * 10 ** 18);\n    }\n  }\n\n  function changeInterestRate(uint _newRate) public {\n    require(msg.sender == owner, 'You must be the owner to run this.');\n    omegaInterestRatePercent = _newRate;\n  }\n\n  function burnOmega(address _dead, uint amount) public {\n    require(msg.sender == owner, 'You must be the owner to run this.');\n    omegaAddress.transfer(_dead, amount);\n  }\n\n  function addOxToLiquidityPool(address _pool, uint amount) public {\n    require(msg.sender == owner, 'You must be the owner to run this.');\n    oxAddress.transfer(_pool, amount);\n  }\n\n  function awardNode(address _address, uint _nodeType) public {\n    require(msg.sender == owner, 'You must be the owner to run this.');\n\n    Account memory account;\n\n    if(accounts[_address].exists){\n      account = accounts[_address];\n    }\n    else{\n      account = Account(true, 0, 0, 0, 0, 0, 0);\n      omegaNodesAddresses.push(_address);\n    }\n\n    if(_nodeType == 0){\n      account.iotaCount++;\n    }\n    else if(_nodeType == 1){\n      account.lambdaCount++;\n    }\n    else if(_nodeType == 2){\n      account.phiCount++;\n    }\n    else if(_nodeType == 3){\n      account.chiliaCount++;\n    }\n    else if(_nodeType == 4){\n      account.tabithaCount++;\n    }\n    totalNodes++;\n    accounts[_address] = account;\n  }\n}\n",
  "sourcePath": "/Users/bruno/dev/crypto/omega/omega-nodes/contracts/OmegaDao2.sol",
  "compiler": {
    "name": "solc",
    "version": "0.8.10+commit.fc410830.Emscripten.clang"
  },
  "schemaVersion": "3.4.3",
  "updatedAt": "2022-01-01T16:02:21.814Z",
  "networkType": "ethereum",
  "devdoc": {
    "kind": "dev",
    "methods": {},
    "version": 1
  },
  "userdoc": {
    "kind": "user",
    "methods": {},
    "version": 1
  }
}